{
    "_format": "hh-sol-artifact-1",
    "contractName": "WavePortal",
    "sourceName": "contracts/WavePortal.sol",
    "abi": [
        {
            "inputs": [],
            "stateMutability": "nonpayable",
            "type": "constructor"
        },
        {
            "anonymous": false,
            "inputs": [
                {
                    "indexed": true,
                    "internalType": "address",
                    "name": "from",
                    "type": "address"
                },
                {
                    "indexed": false,
                    "internalType": "uint256",
                    "name": "timestamp",
                    "type": "uint256"
                },
                {
                    "indexed": false,
                    "internalType": "string",
                    "name": "message",
                    "type": "string"
                }
            ],
            "name": "NewWave",
            "type": "event"
        },
        {
            "inputs": [],
            "name": "getListOfWavers",
            "outputs": [
                {
                    "components": [
                        {
                            "internalType": "address",
                            "name": "from",
                            "type": "address"
                        },
                        {
                            "internalType": "string",
                            "name": "message",
                            "type": "string"
                        },
                        {
                            "internalType": "uint256",
                            "name": "timestamp",
                            "type": "uint256"
                        }
                    ],
                    "internalType": "struct WavePortal.Wave[]",
                    "name": "",
                    "type": "tuple[]"
                }
            ],
            "stateMutability": "view",
            "type": "function"
        },
        {
            "inputs": [],
            "name": "getTotalWaves",
            "outputs": [
                {
                    "internalType": "uint256",
                    "name": "",
                    "type": "uint256"
                }
            ],
            "stateMutability": "view",
            "type": "function"
        },
        {
            "inputs": [
                {
                    "internalType": "string",
                    "name": "_message",
                    "type": "string"
                }
            ],
            "name": "wave",
            "outputs": [],
            "stateMutability": "nonpayable",
            "type": "function"
        }
    ],
    "bytecode": "0x60806040523480156200001157600080fd5b506200004160405180606001604052806023815260200162000e5b602391396200004760201b620003d11760201c565b620001db565b620000e7816040516024016200005e919062000154565b6040516020818303038152906040527f41304fac000000000000000000000000000000000000000000000000000000007bffffffffffffffffffffffffffffffffffffffffffffffffffffffff19166020820180517bffffffffffffffffffffffffffffffffffffffffffffffffffffffff8381831617835250505050620000ea60201b60201c565b50565b60008151905060006a636f6e736f6c652e6c6f679050602083016000808483855afa5050505050565b6000620001208262000178565b6200012c818562000183565b93506200013e81856020860162000194565b6200014981620001ca565b840191505092915050565b6000602082019050818103600083015262000170818462000113565b905092915050565b600081519050919050565b600082825260208201905092915050565b60005b83811015620001b457808201518184015260208101905062000197565b83811115620001c4576000848401525b50505050565b6000601f19601f8301169050919050565b610c7080620001eb6000396000f3fe608060405234801561001057600080fd5b50600436106100415760003560e01c8063449d46c0146100465780637e95e1a2146100625780639a2cdc0814610080575b600080fd5b610060600480360381019061005b91906106d9565b61009e565b005b61006a610214565b60405161007791906108a1565b60405180910390f35b6100886103a3565b604051610095919061095a565b60405180910390f35b6000808154809291906100b090610b1c565b9190505550600160405180606001604052803373ffffffffffffffffffffffffffffffffffffffff16815260200183815260200142815250908060018154018082558091505060019003906000526020600020906003020160009091909190915060008201518160000160006101000a81548173ffffffffffffffffffffffffffffffffffffffff021916908373ffffffffffffffffffffffffffffffffffffffff16021790555060208201518160010190805190602001906101749291906105ce565b506040820151816002015550506101c16040518060400160405280601f81526020017f2573206a75737420776176656420617420796f752120736179696e6720257300815250338361046a565b3373ffffffffffffffffffffffffffffffffffffffff167f5f7e16dc676677766a70e9c5628aa6c54ddb8b6e5188e2ae1e1f17f1ffbea7164283604051610209929190610975565b60405180910390a250565b60606102546040518060400160405280601681526020017f546865206c697374206f662077617665727320617265000000000000000000008152506103d1565b6001805480602002602001604051908101604052809291908181526020016000905b8282101561039a57838290600052602060002090600302016040518060600160405290816000820160009054906101000a900473ffffffffffffffffffffffffffffffffffffffff1673ffffffffffffffffffffffffffffffffffffffff1673ffffffffffffffffffffffffffffffffffffffff1681526020016001820180546102ff90610aea565b80601f016020809104026020016040519081016040528092919081815260200182805461032b90610aea565b80156103785780601f1061034d57610100808354040283529160200191610378565b820191906000526020600020905b81548152906001019060200180831161035b57829003601f168201915b5050505050815260200160028201548152505081526020019060010190610276565b50505050905090565b60006103c9604051806060016040528060378152602001610c0460379139600054610509565b600054905090565b610467816040516024016103e591906108c3565b6040516020818303038152906040527f41304fac000000000000000000000000000000000000000000000000000000007bffffffffffffffffffffffffffffffffffffffffffffffffffffffff19166020820180517bffffffffffffffffffffffffffffffffffffffffffffffffffffffff83818316178352505050506105a5565b50565b610504838383604051602401610482939291906108e5565b6040516020818303038152906040527fe0e9ad4f000000000000000000000000000000000000000000000000000000007bffffffffffffffffffffffffffffffffffffffffffffffffffffffff19166020820180517bffffffffffffffffffffffffffffffffffffffffffffffffffffffff83818316178352505050506105a5565b505050565b6105a1828260405160240161051f92919061092a565b6040516020818303038152906040527f9710a9d0000000000000000000000000000000000000000000000000000000007bffffffffffffffffffffffffffffffffffffffffffffffffffffffff19166020820180517bffffffffffffffffffffffffffffffffffffffffffffffffffffffff83818316178352505050506105a5565b5050565b60008151905060006a636f6e736f6c652e6c6f679050602083016000808483855afa5050505050565b8280546105da90610aea565b90600052602060002090601f0160209004810192826105fc5760008555610643565b82601f1061061557805160ff1916838001178555610643565b82800160010185558215610643579182015b82811115610642578251825591602001919060010190610627565b5b5090506106509190610654565b5090565b5b8082111561066d576000816000905550600101610655565b5090565b600061068461067f846109d6565b6109a5565b90508281526020810184848401111561069c57600080fd5b6106a7848285610aa8565b509392505050565b600082601f8301126106c057600080fd5b81356106d0848260208601610671565b91505092915050565b6000602082840312156106eb57600080fd5b600082013567ffffffffffffffff81111561070557600080fd5b610711848285016106af565b91505092915050565b60006107268383610833565b905092915050565b61073781610a6c565b82525050565b61074681610a6c565b82525050565b600061075782610a16565b6107618185610a39565b93508360208202850161077385610a06565b8060005b858110156107af5784840389528151610790858261071a565b945061079b83610a2c565b925060208a01995050600181019050610777565b50829750879550505050505092915050565b60006107cc82610a21565b6107d68185610a4a565b93506107e6818560208601610ab7565b6107ef81610bf2565b840191505092915050565b600061080582610a21565b61080f8185610a5b565b935061081f818560208601610ab7565b61082881610bf2565b840191505092915050565b600060608301600083015161084b600086018261072e565b506020830151848203602086015261086382826107c1565b91505060408301516108786040860182610883565b508091505092915050565b61088c81610a9e565b82525050565b61089b81610a9e565b82525050565b600060208201905081810360008301526108bb818461074c565b905092915050565b600060208201905081810360008301526108dd81846107fa565b905092915050565b600060608201905081810360008301526108ff81866107fa565b905061090e602083018561073d565b818103604083015261092081846107fa565b9050949350505050565b6000604082019050818103600083015261094481856107fa565b90506109536020830184610892565b9392505050565b600060208201905061096f6000830184610892565b92915050565b600060408201905061098a6000830185610892565b818103602083015261099c81846107fa565b90509392505050565b6000604051905081810181811067ffffffffffffffff821117156109cc576109cb610bc3565b5b8060405250919050565b600067ffffffffffffffff8211156109f1576109f0610bc3565b5b601f19601f8301169050602081019050919050565b6000819050602082019050919050565b600081519050919050565b600081519050919050565b6000602082019050919050565b600082825260208201905092915050565b600082825260208201905092915050565b600082825260208201905092915050565b6000610a7782610a7e565b9050919050565b600073ffffffffffffffffffffffffffffffffffffffff82169050919050565b6000819050919050565b82818337600083830152505050565b60005b83811015610ad5578082015181840152602081019050610aba565b83811115610ae4576000848401525b50505050565b60006002820490506001821680610b0257607f821691505b60208210811415610b1657610b15610b94565b5b50919050565b6000610b2782610a9e565b91507fffffffffffffffffffffffffffffffffffffffffffffffffffffffffffffffff821415610b5a57610b59610b65565b5b600182019050919050565b7f4e487b7100000000000000000000000000000000000000000000000000000000600052601160045260246000fd5b7f4e487b7100000000000000000000000000000000000000000000000000000000600052602260045260246000fd5b7f4e487b7100000000000000000000000000000000000000000000000000000000600052604160045260246000fd5b6000601f19601f830116905091905056fe54686520746f74616c206e756d626572206f66207761766573207765206861766520726563656976656420736f20666172206973202573a264697066735822122028605a974a08ce2bad0e637cdbcef02fd5c4ac3230d9d9c40fd20830926575ac64736f6c63430008000033596561682c2074686973206973206120636f6f6c20736d61727420636f6e7472616374",
    "linkReferences": {},
    "deployedLinkReferences": {}
}