{
    "_format": "hh-sol-artifact-1",
    "contractName": "WavePortal",
    "sourceName": "contracts/WavePortal.sol",
    "abi": [
        {
            "inputs": [],
            "stateMutability": "payable",
            "type": "constructor"
        },
        {
            "anonymous": false,
            "inputs": [
                {
                    "indexed": true,
                    "internalType": "address",
                    "name": "from",
                    "type": "address"
                },
                {
                    "indexed": false,
                    "internalType": "uint256",
                    "name": "timestamp",
                    "type": "uint256"
                },
                {
                    "indexed": false,
                    "internalType": "string",
                    "name": "message",
                    "type": "string"
                }
            ],
            "name": "NewWave",
            "type": "event"
        },
        {
            "inputs": [],
            "name": "getListOfWavers",
            "outputs": [
                {
                    "components": [
                        {
                            "internalType": "address",
                            "name": "from",
                            "type": "address"
                        },
                        {
                            "internalType": "string",
                            "name": "message",
                            "type": "string"
                        },
                        {
                            "internalType": "uint256",
                            "name": "timestamp",
                            "type": "uint256"
                        }
                    ],
                    "internalType": "struct WavePortal.Wave[]",
                    "name": "",
                    "type": "tuple[]"
                }
            ],
            "stateMutability": "view",
            "type": "function"
        },
        {
            "inputs": [],
            "name": "getTotalWaves",
            "outputs": [
                {
                    "internalType": "uint256",
                    "name": "",
                    "type": "uint256"
                }
            ],
            "stateMutability": "view",
            "type": "function"
        },
        {
            "inputs": [
                {
                    "internalType": "address",
                    "name": "",
                    "type": "address"
                }
            ],
            "name": "lastWavedAt",
            "outputs": [
                {
                    "internalType": "uint256",
                    "name": "",
                    "type": "uint256"
                }
            ],
            "stateMutability": "view",
            "type": "function"
        },
        {
            "inputs": [
                {
                    "internalType": "string",
                    "name": "_message",
                    "type": "string"
                }
            ],
            "name": "wave",
            "outputs": [],
            "stateMutability": "nonpayable",
            "type": "function"
        }
    ],
    "bytecode": "0x608060405262000033604051806060016040528060238152602001620015e5602391396200005b60201b620006a71760201c565b60644442620000439190620001a8565b6200004f919062000245565b600181905550620002ec565b620000fb8160405160240162000072919062000168565b6040516020818303038152906040527f41304fac000000000000000000000000000000000000000000000000000000007bffffffffffffffffffffffffffffffffffffffffffffffffffffffff19166020820180517bffffffffffffffffffffffffffffffffffffffffffffffffffffffff8381831617835250505050620000fe60201b60201c565b50565b60008151905060006a636f6e736f6c652e6c6f679050602083016000808483855afa5050505050565b600062000134826200018c565b62000140818562000197565b9350620001528185602086016200020f565b6200015d81620002db565b840191505092915050565b6000602082019050818103600083015262000184818462000127565b905092915050565b600081519050919050565b600082825260208201905092915050565b6000620001b58262000205565b9150620001c28362000205565b9250827fffffffffffffffffffffffffffffffffffffffffffffffffffffffffffffffff03821115620001fa57620001f96200027d565b5b828201905092915050565b6000819050919050565b60005b838110156200022f57808201518184015260208101905062000212565b838111156200023f576000848401525b50505050565b6000620002528262000205565b91506200025f8362000205565b925082620002725762000271620002ac565b5b828206905092915050565b7f4e487b7100000000000000000000000000000000000000000000000000000000600052601160045260246000fd5b7f4e487b7100000000000000000000000000000000000000000000000000000000600052601260045260246000fd5b6000601f19601f8301169050919050565b6112e980620002fc6000396000f3fe608060405234801561001057600080fd5b506004361061004c5760003560e01c8063449d46c0146100515780637e95e1a21461006d5780639a2cdc081461008b578063a42a4663146100a9575b600080fd5b61006b60048036038101906100669190610a89565b6100d9565b005b6100756104d2565b6040516100829190610db2565b60405180910390f35b610093610661565b6040516100a09190610efb565b60405180910390f35b6100c360048036038101906100be9190610a60565b61068f565b6040516100d09190610efb565b60405180910390f35b42601e600260003373ffffffffffffffffffffffffffffffffffffffff1673ffffffffffffffffffffffffffffffffffffffff168152602001908152602001600020546101269190611018565b10610166576040517f08c379a000000000000000000000000000000000000000000000000000000000815260040161015d90610edb565b60405180910390fd5b42600260003373ffffffffffffffffffffffffffffffffffffffff1673ffffffffffffffffffffffffffffffffffffffff168152602001908152602001600020819055506000808154809291906101bc9061111e565b9190505550600360405180606001604052803373ffffffffffffffffffffffffffffffffffffffff16815260200183815260200142815250908060018154018082558091505060019003906000526020600020906003020160009091909190915060008201518160000160006101000a81548173ffffffffffffffffffffffffffffffffffffffff021916908373ffffffffffffffffffffffffffffffffffffffff1602179055506020820151816001019080519060200190610280929190610940565b506040820151816002015550506102cd6040518060400160405280601f81526020017f2573206a75737420776176656420617420796f752120736179696e67202573008152503383610740565b606460015442446102de9190611018565b6102e89190611018565b6102f29190611167565b6001819055506103396040518060400160405280601681526020017f52616e646f6d20232067656e6572617465643a202564000000000000000000008152506001546107df565b60326001541161047f576103826040518060400160405280600781526020017f257320776f6e21000000000000000000000000000000000000000000000000008152503361087b565b6000655af3107a40009050478111156103d0576040517f08c379a00000000000000000000000000000000000000000000000000000000081526004016103c790610e9b565b60405180910390fd5b60003373ffffffffffffffffffffffffffffffffffffffff16826040516103f690610d9d565b60006040518083038185875af1925050503d8060008114610433576040519150601f19603f3d011682016040523d82523d6000602084013e610438565b606091505b505090508061047c576040517f08c379a000000000000000000000000000000000000000000000000000000000815260040161047390610ebb565b60405180910390fd5b50505b3373ffffffffffffffffffffffffffffffffffffffff167f5f7e16dc676677766a70e9c5628aa6c54ddb8b6e5188e2ae1e1f17f1ffbea71642836040516104c7929190610f16565b60405180910390a250565b60606105126040518060400160405280601681526020017f546865206c697374206f662077617665727320617265000000000000000000008152506106a7565b6003805480602002602001604051908101604052809291908181526020016000905b8282101561065857838290600052602060002090600302016040518060600160405290816000820160009054906101000a900473ffffffffffffffffffffffffffffffffffffffff1673ffffffffffffffffffffffffffffffffffffffff1673ffffffffffffffffffffffffffffffffffffffff1681526020016001820180546105bd906110ec565b80601f01602080910402602001604051908101604052809291908181526020018280546105e9906110ec565b80156106365780601f1061060b57610100808354040283529160200191610636565b820191906000526020600020905b81548152906001019060200180831161061957829003601f168201915b5050505050815260200160028201548152505081526020019060010190610534565b50505050905090565b600061068760405180606001604052806037815260200161127d603791396000546107df565b600054905090565b60026020528060005260406000206000915090505481565b61073d816040516024016106bb9190610dd4565b6040516020818303038152906040527f41304fac000000000000000000000000000000000000000000000000000000007bffffffffffffffffffffffffffffffffffffffffffffffffffffffff19166020820180517bffffffffffffffffffffffffffffffffffffffffffffffffffffffff8381831617835250505050610917565b50565b6107da83838360405160240161075893929190610e26565b6040516020818303038152906040527fe0e9ad4f000000000000000000000000000000000000000000000000000000007bffffffffffffffffffffffffffffffffffffffffffffffffffffffff19166020820180517bffffffffffffffffffffffffffffffffffffffffffffffffffffffff8381831617835250505050610917565b505050565b61087782826040516024016107f5929190610e6b565b6040516020818303038152906040527f9710a9d0000000000000000000000000000000000000000000000000000000007bffffffffffffffffffffffffffffffffffffffffffffffffffffffff19166020820180517bffffffffffffffffffffffffffffffffffffffffffffffffffffffff8381831617835250505050610917565b5050565b6109138282604051602401610891929190610df6565b6040516020818303038152906040527f319af333000000000000000000000000000000000000000000000000000000007bffffffffffffffffffffffffffffffffffffffffffffffffffffffff19166020820180517bffffffffffffffffffffffffffffffffffffffffffffffffffffffff8381831617835250505050610917565b5050565b60008151905060006a636f6e736f6c652e6c6f679050602083016000808483855afa5050505050565b82805461094c906110ec565b90600052602060002090601f01602090048101928261096e57600085556109b5565b82601f1061098757805160ff19168380011785556109b5565b828001600101855582156109b5579182015b828111156109b4578251825591602001919060010190610999565b5b5090506109c291906109c6565b5090565b5b808211156109df5760008160009055506001016109c7565b5090565b60006109f66109f184610f77565b610f46565b905082815260208101848484011115610a0e57600080fd5b610a198482856110aa565b509392505050565b600081359050610a3081611265565b92915050565b600082601f830112610a4757600080fd5b8135610a578482602086016109e3565b91505092915050565b600060208284031215610a7257600080fd5b6000610a8084828501610a21565b91505092915050565b600060208284031215610a9b57600080fd5b600082013567ffffffffffffffff811115610ab557600080fd5b610ac184828501610a36565b91505092915050565b6000610ad68383610d2f565b905092915050565b610ae78161106e565b82525050565b610af68161106e565b82525050565b6000610b0782610fb7565b610b118185610fda565b935083602082028501610b2385610fa7565b8060005b85811015610b5f5784840389528151610b408582610aca565b9450610b4b83610fcd565b925060208a01995050600181019050610b27565b50829750879550505050505092915050565b6000610b7c82610fc2565b610b868185610ff6565b9350610b968185602086016110b9565b610b9f81611254565b840191505092915050565b6000610bb582610fc2565b610bbf8185611007565b9350610bcf8185602086016110b9565b610bd881611254565b840191505092915050565b6000610bf0603483611007565b91507f547279696e6720746f207769746864726177206d6f7265206d6f6e657920746860008301527f616e2074686520636f6e7472616374206861732e0000000000000000000000006020830152604082019050919050565b6000610c56602783611007565b91507f4661696c656420746f207769746864726177206d6f6e65792066726f6d20636f60008301527f6e74726163742e000000000000000000000000000000000000000000000000006020830152604082019050919050565b6000610cbc602983611007565b91507f4d7573742077616974203330207365636f6e6473206265666f7265207761766960008301527f6e6720616761696e2e00000000000000000000000000000000000000000000006020830152604082019050919050565b6000610d22600083610feb565b9150600082019050919050565b6000606083016000830151610d476000860182610ade565b5060208301518482036020860152610d5f8282610b71565b9150506040830151610d746040860182610d7f565b508091505092915050565b610d88816110a0565b82525050565b610d97816110a0565b82525050565b6000610da882610d15565b9150819050919050565b60006020820190508181036000830152610dcc8184610afc565b905092915050565b60006020820190508181036000830152610dee8184610baa565b905092915050565b60006040820190508181036000830152610e108185610baa565b9050610e1f6020830184610aed565b9392505050565b60006060820190508181036000830152610e408186610baa565b9050610e4f6020830185610aed565b8181036040830152610e618184610baa565b9050949350505050565b60006040820190508181036000830152610e858185610baa565b9050610e946020830184610d8e565b9392505050565b60006020820190508181036000830152610eb481610be3565b9050919050565b60006020820190508181036000830152610ed481610c49565b9050919050565b60006020820190508181036000830152610ef481610caf565b9050919050565b6000602082019050610f106000830184610d8e565b92915050565b6000604082019050610f2b6000830185610d8e565b8181036020830152610f3d8184610baa565b90509392505050565b6000604051905081810181811067ffffffffffffffff82111715610f6d57610f6c611225565b5b8060405250919050565b600067ffffffffffffffff821115610f9257610f91611225565b5b601f19601f8301169050602081019050919050565b6000819050602082019050919050565b600081519050919050565b600081519050919050565b6000602082019050919050565b600082825260208201905092915050565b600081905092915050565b600082825260208201905092915050565b600082825260208201905092915050565b6000611023826110a0565b915061102e836110a0565b9250827fffffffffffffffffffffffffffffffffffffffffffffffffffffffffffffffff0382111561106357611062611198565b5b828201905092915050565b600061107982611080565b9050919050565b600073ffffffffffffffffffffffffffffffffffffffff82169050919050565b6000819050919050565b82818337600083830152505050565b60005b838110156110d75780820151818401526020810190506110bc565b838111156110e6576000848401525b50505050565b6000600282049050600182168061110457607f821691505b60208210811415611118576111176111f6565b5b50919050565b6000611129826110a0565b91507fffffffffffffffffffffffffffffffffffffffffffffffffffffffffffffffff82141561115c5761115b611198565b5b600182019050919050565b6000611172826110a0565b915061117d836110a0565b92508261118d5761118c6111c7565b5b828206905092915050565b7f4e487b7100000000000000000000000000000000000000000000000000000000600052601160045260246000fd5b7f4e487b7100000000000000000000000000000000000000000000000000000000600052601260045260246000fd5b7f4e487b7100000000000000000000000000000000000000000000000000000000600052602260045260246000fd5b7f4e487b7100000000000000000000000000000000000000000000000000000000600052604160045260246000fd5b6000601f19601f8301169050919050565b61126e8161106e565b811461127957600080fd5b5056fe54686520746f74616c206e756d626572206f66207761766573207765206861766520726563656976656420736f20666172206973202573a26469706673582212202965f36d74db357691084d3a1cf8f92ec2333a55c64e24c3cb50be129d5444ed64736f6c63430008000033596561682c2074686973206973206120636f6f6c20736d61727420636f6e7472616374",
    "linkReferences": {},
    "deployedLinkReferences": {}
}